:020000040800F2
:100000005004002081020008E1020008E10200081B
:10001000E1020008E1020008E1020008000000001F
:10002000000000000000000000000000E1020008E5
:10003000E102000800000000E1020008E1020008FF
:10004000E1020008E1020008E1020008E102000804
:10005000E1020008E1020008E1020008E1020008F4
:10006000E1020008E1020008E1020008E1020008E4
:10007000E1020008E1020008E1020008E1020008D4
:10008000E1020008E1020008E1020008E1020008C4
:10009000E1020008E1020008E1020008E1020008B4
:1000A000E1020008E1020008E1020008E1020008A4
:1000B000E1020008E1020008E1020008E102000894
:1000C000E1020008E1020008E1020008E102000884
:1000D000E1020008E1020008E1020008E102000874
:1000E000E1020008E1020008E1020008000000004F
:1000F0000000000000000000000000000000000000
:1001000000000000000000005FF808F180B500AFBB
:10011000154A154B1B6843F0010313601249124B3B
:100120005A68124B13404B600F4A0F4B1B6823F069
:10013000847323F4803313600B4A0B4B1B6823F446
:1001400080231360084A084B5B6823F4FE03536066
:10015000054B4FF41F029A6000F00CF8044B4FF06F
:1001600000629A6000BF80BD001002400000FFF8EE
:1001700000ED00E080B500AF00F002F800BF80BDE8
:1001800080B483B000AF00237B6000233B603A4A19
:10019000394B1B6843F480331360374B1B6803F4FF
:1001A00000333B607B6801337B603B68002B03D1ED
:1001B0007B68B3F5A06FF0D12F4B1B6803F40033BD
:1001C000002B02D001233B6001E000233B603B6831
:1001D000012B4BD1294A294B1B6843F010031360B4
:1001E000264A264B1B6823F003031360234A234B44
:1001F0001B6843F0020313601F4A1F4B5B68536088
:100200001D4A1D4B5B6853601B4A1B4B5B6843F4E4
:1002100080635360184A184B5B6823F47C13536067
:10022000154A154B5B6843F4E8135360124A124BAE
:100230001B6843F08073136000BF0F4B1B6803F013
:100240000073002BF9D00C4A0B4B5B6823F00303BF
:100250005360094A084B5B6843F00203536000BFD8
:10026000054B5B6803F00C03082BF9D100BF0C377A
:10027000BD4680BC704700BF001002400020024015
:1002800080B582B000AF114B7B60114B3B6007E043
:100290003B681A1D3A607A68111D796012681A600D
:1002A0003B680C4A9342F3D30B480C494FF00002D1
:1002B0008842B8BF40F8042BFADBFFF727FF00F0B5
:1002C000EFFB00BF0837BD4680BD00BF8C0C0008A7
:1002D000000000200000002000000020500000204E
:1002E00080B400AFFEE700BF80B489B000AF786093
:1002F00039600023FB6100233B610023BB610023C5
:10030000FB6000237B610023BB603B68DB7803F06C
:100310000F03FB613B68DB7803F01003002B05D073
:100320003B689B781A46FB691343FB613B681B885B
:10033000DBB2002B44D07B681B687B610023BB6170
:1003400038E00122BB6902FA03F3FB603B681B88BB
:100350001A46FB6813403B613A69FB689A4226D112
:10036000BB699B00FB600F22FB6802FA03F3BB60D2
:10037000BB68DB437A6913407B61FA69FB6802FA68
:1003800003F37A6913437B613B68DB78282B05D143
:100390000122BB699A407B685A6108E03B68DB78C0
:1003A000482B04D10122BB699A407B681A61BB6962
:1003B0000133BB61BB69072BC3D97B687A691A60BB
:1003C0003B681B88FF2B46D97B685B687B610023F9
:1003D000BB613AE0BB690833012202FA03F3FB6018
:1003E0003B681B881A46FB6813403B613A69FB680F
:1003F0009A4227D1BB699B00FB600F22FB6802FA7F
:1004000003F3BB60BB68DB437A6913407B61FA6925
:10041000FB6802FA03F37A6913437B613B68DB787C
:10042000282B05D1BB69083301229A407B685A61A9
:100430003B68DB78482B05D1BB69083301229A4021
:100440007B681A61BB690133BB61BB69072BC1D9EA
:100450007B687A695A6000BF2437BD4680BC70470C
:1004600080B483B000AF78607B684FF6FF721A806B
:100470007B6802229A707B680422DA7000BF0C3716
:10048000BD4680BC704700BF80B485B000AF7860C7
:100490000B467B800023FB737B689A687B88134044
:1004A000002B02D00123FB7301E00023FB73FB7BD5
:1004B00018461437BD4680BC704700BF80B483B077
:1004C00000AF78600B467B807A887B681A6100BF3A
:1004D0000C37BD4680BC704780B483B000AF7860F5
:1004E0000B467B807A887B685A6100BF0C37BD461B
:1004F00080BC704780B500AF01211C2000F0F4FAE9
:1005000001214FF4804000F00DFB304800F06CFBFF
:100510002E4B00221A802D4B4FF482725A802B4BA7
:1005200000229A80294B0022DA80284B01221A816E
:10053000264B4FF400725A81244B08229A81234B98
:100540000022DA81214B07221A822049204800F03C
:1005500007FB2048FFF784FF1E4B1822DA701D4B63
:100560004FF460421A801B4B03229A7019491A48B3
:10057000FFF7BAFE174B40F6FB721A80154B482264
:10058000DA70144B02229A7012491348FFF7ACFE3E
:10059000104B4FF440421A800E4B4822DA700D4B3C
:1005A00002229A700B490D48FFF79EFE094B10225C
:1005B000DA70084B0F221A80064B03229A70054905
:1005C0000748FFF791FE00BF80BD00BF3800002044
:1005D000003800404C000020000C01400010014099
:1005E0000008014080B400AF154A154BDB6883F06A
:1005F0000203D360134B00221A6004E0114B1B6806
:100600000133104A13600F4B1B68B3F5801FF5DBF5
:100610000B4A0B4BDB6883F00203D360094B0022CB
:100620001A6004E0074B1B680133064A1360054B50
:100630001B68B3F5801FF5DB00BFBD4680BC70476B
:10064000000801402C00002080B582B000AF786027
:10065000814B00221A604FF400618048FFF714FFBD
:100660000346002B0ED1FFF7BDFF7B4B1B68002B11
:1006700008D17B4B01221A70774B01221A607B68EC
:1006800001337B60774B00221A604FF4806173481E
:10069000FFF7FAFE0346002B0ED1FFF7A3FF714BC5
:1006A0001B68002B08D16E4B02221A706D4B012281
:1006B0001A607B6801337B606B4B00221A60022159
:1006C0006648FFF7E1FE0346002B0ED1FFF78AFFD5
:1006D000654B1B68002B08D1614B03221A70624BDB
:1006E00001221A607B6801337B60604B00221A6034
:1006F0004FF480415E48FFF7C7FE0346002B0ED142
:10070000FFF770FF594B1B68002B08D1544B042294
:100710001A70564B01221A607B6801337B60554B7F
:1007200000221A6020214D48FFF7AEFE0346002B41
:100730000ED1FFF757FF4F4B1B68002B08D1484BDA
:1007400005221A704B4B01221A607B6801337B60D3
:10075000494B00221A6040214048FFF795FE0346AE
:10076000002B0ED1FFF73EFF434B1B68002B08D137
:100770003B4B06221A70404B01221A607B68013302
:100780007B603E4B00221A604FF480713348FFF7C4
:100790007BFE0346002B0ED1FFF724FF374B1B686F
:1007A000002B08D12E4B07221A70344B01221A60FD
:1007B0007B6801337B60324B00221A60012127489D
:1007C000FFF762FE0346002B0ED1FFF70BFF2C4B09
:1007D0001B68002B08D1224B08221A70284B0122DB
:1007E0001A607B6801337B60264B00221A6010215F
:1007F0001A48FFF749FE0346002B0ED1FFF7F2FE21
:10080000204B1B68002B08D1154B09221A701D4B79
:1008100001221A607B6801337B601B4B00221A6047
:1008200080210E48FFF730FE0346002B0ED1FFF764
:10083000D9FE154B1B68002B08D1094B10221A70EA
:10084000114B01221A607B6801337B607B6818467C
:100850000837BD4680BD00BF04000020000C0140E9
:1008600034000020080000200C00002010000020B0
:100870000010014014000020180000201C0000207F
:1008800020000020240000202800002080B582B035
:1008900000AF724B1B68012B4BD0022B00F0A780DE
:1008A000002B00D0D6E06E4B00221A706C4B1B78E8
:1008B0009BB219466B4800F0DBF94FF400716A48AF
:1008C000FFF7E2FD0346002B14D1684B00221A60AB
:1008D00004E0664B1B680133644A1360634B1B687A
:1008E000B3F5801FF5DB01216148FFF7E7FD5B4BA6
:1008F00001221A604FF400415E48FFF7C5FD034630
:10090000002B40F0A680594B00221A6004E0574BA0
:100910001B680133554A1360544B1B68B3F5801FA5
:10092000F5DB08215248FFF7C9FD4C4B02221A6043
:100930008FE04B4B12221A70494B1B789BB2194621
:10094000484800F095F900237B6035E07868FFF7B0
:100950007BFE7860484B1B68012B23D0474B1B68FC
:10096000012B1FD0464B1B68012B1BD0454B1B682E
:10097000012B17D0444B1B68012B13D0434B1B6832
:10098000012B0FD0424B1B68012B0BD0414B1B6836
:10099000012B07D0404B1B68012B03D03F4B1B683A
:1009A000012B09D12E4B1B789BB219462D4800F024
:1009B0005FF92B4B12221A707B68042BC6D12B4B8C
:1009C00000221A6004E0294B1B680133274A136098
:1009D000264B1B68B3F5801FF5DB01212448FFF788
:1009E0007BFD00237B601D4B00221A6032E01F4B11
:1009F00000221A6004E01D4B1B6801331B4A136080
:100A00001A4B1B68B3F5801FF5DB184B00221A60E8
:100A100004E0164B1B680133144A1360134B1B6828
:100A2000B3F5801FF5DB08211148FFF755FDFFF7EF
:100A3000D9FDFFF7D7FD0A4B11221A70084B1B781E
:100A40009BB21946074800F013F9044B00221A60C4
:100A500000E000BF00BF0837BD4680BD0000002099
:100A60003400002000380040000C01402C00002021
:100A70000008014000100140040000200800002090
:100A80000C0000201000002014000020180000209E
:100A90001C0000202000002024000020280000204E
:100AA00080B500AF62B6FFF725FD01210B4800F0CD
:100AB000BFF80B4B00221A700A4B1B8801339AB205
:100AC000084B1A80074B1B8843F698229342F3D1B8
:100AD000044B00221A80FFF7D9FEEDE700380040F2
:100AE000340000203000002080B483B000AF786074
:100AF0000B46FB70FB78002B06D00949084B9A691E
:100B00007B6813438B6106E00549054B9A697B6856
:100B1000DB4313408B6100BF0C37BD4680BC704780
:100B20000010024080B483B000AF78600B46FB70C9
:100B3000FB78002B06D00949084BDA697B68134320
:100B4000CB6106E00549054BDA697B68DB4313405E
:100B5000CB6100BF0C37BD4680BC7047001002401F
:100B600080B485B000AF786039600023FB817B687A
:100B70001B88FB81FB8903F44153FB813B681A8886
:100B80003B685B8813439AB23B689B8813439AB2D5
:100B90003B68DB8813439AB23B681B8913439AB2C4
:100BA0003B685B8913439AB23B689B8913439AB2B3
:100BB0003B68DB8913439AB2FB891343FB817B6853
:100BC000FA891A807B689B8B9BB223F400639AB2EC
:100BD0007B689A833B681A8A7B681A8200BF143745
:100BE000BD4680BC704700BF80B483B000AF786062
:100BF0007B6800221A807B6800225A807B68002272
:100C00009A807B680022DA807B6800221A817B68E8
:100C100000225A817B6800229A817B680022DA8157
:100C20007B6807221A8200BF0C37BD4680BC704724
:100C300080B483B000AF78600B46FB70FB78002B6C
:100C400008D07B681B889BB243F040039AB27B6854
:100C50001A8007E07B681B889BB223F040039AB29E
:100C60007B681A8000BF0C37BD4680BC704700BF50
:100C700080B483B000AF78600B467B807B687A8855
:0C0C80009A8100BF0C37BD4680BC704755
:0400000508000000EF
:00000001FF
