:020000040800F2
:100000006004002081020008E1020008E10200080B
:10001000E1020008E1020008E1020008000000001F
:10002000000000000000000000000000E1020008E5
:10003000E102000800000000E1020008E1020008FF
:10004000E1020008E1020008E1020008E102000804
:10005000E1020008E1020008E1020008E1020008F4
:10006000E1020008E1020008E1020008E1020008E4
:10007000E1020008E1020008E1020008E1020008D4
:10008000E1020008E1020008E1020008E1020008C4
:10009000E1020008E1020008E1020008E1020008B4
:1000A000E1020008E1020008E1020008E1020008A4
:1000B000E1020008E1020008E1020008E102000894
:1000C000E1020008E1020008E1020008E102000884
:1000D000550E0008E1020008E1020008E1020008F4
:1000E000E1020008E1020008E1020008000000004F
:1000F0000000000000000000000000000000000000
:1001000000000000000000005FF808F180B500AFBB
:10011000154A154B1B6843F0010313601249124B3B
:100120005A68124B13404B600F4A0F4B1B6823F069
:10013000847323F4803313600B4A0B4B1B6823F446
:1001400080231360084A084B5B6823F4FE03536066
:10015000054B4FF41F029A6000F00CF8044B4FF06F
:1001600000629A6000BF80BD001002400000FFF8EE
:1001700000ED00E080B500AF00F002F800BF80BDE8
:1001800080B483B000AF00237B6000233B603A4A19
:10019000394B1B6843F480331360374B1B6803F4FF
:1001A00000333B607B6801337B603B68002B03D1ED
:1001B0007B68B3F5A06FF0D12F4B1B6803F40033BD
:1001C000002B02D001233B6001E000233B603B6831
:1001D000012B4BD1294A294B1B6843F010031360B4
:1001E000264A264B1B6823F003031360234A234B44
:1001F0001B6843F0020313601F4A1F4B5B68536088
:100200001D4A1D4B5B6853601B4A1B4B5B6843F4E4
:1002100080635360184A184B5B6823F47C13536067
:10022000154A154B5B6843F4E8135360124A124BAE
:100230001B6843F08073136000BF0F4B1B6803F013
:100240000073002BF9D00C4A0B4B5B6823F00303BF
:100250005360094A084B5B6843F00203536000BFD8
:10026000054B5B6803F00C03082BF9D100BF0C377A
:10027000BD4680BC704700BF001002400020024015
:1002800080B582B000AF114B7B60114B3B6007E043
:100290003B681A1D3A607A68111D796012681A600D
:1002A0003B680C4A9342F3D30B480C494FF00002D1
:1002B0008842B8BF40F8042BFADBFFF727FF00F0B5
:1002C0005FFD00BF0837BD4680BD00BFBA12000801
:1002D000000000200800002008000020600000202E
:1002E00080B400AFFEE700BF80B489B000AF786093
:1002F00039600023FB6100233B610023BB610023C5
:10030000FB6000237B610023BB603B68DB7803F06C
:100310000F03FB613B68DB7803F01003002B05D073
:100320003B689B781A46FB691343FB613B681B885B
:10033000DBB2002B44D07B681B687B610023BB6170
:1003400038E00122BB6902FA03F3FB603B681B88BB
:100350001A46FB6813403B613A69FB689A4226D112
:10036000BB699B00FB600F22FB6802FA03F3BB60D2
:10037000BB68DB437A6913407B61FA69FB6802FA68
:1003800003F37A6913437B613B68DB78282B05D143
:100390000122BB699A407B685A6108E03B68DB78C0
:1003A000482B04D10122BB699A407B681A61BB6962
:1003B0000133BB61BB69072BC3D97B687A691A60BB
:1003C0003B681B88FF2B46D97B685B687B610023F9
:1003D000BB613AE0BB690833012202FA03F3FB6018
:1003E0003B681B881A46FB6813403B613A69FB680F
:1003F0009A4227D1BB699B00FB600F22FB6802FA7F
:1004000003F3BB60BB68DB437A6913407B61FA6925
:10041000FB6802FA03F37A6913437B613B68DB787C
:10042000282B05D1BB69083301229A407B685A61A9
:100430003B68DB78482B05D1BB69083301229A4021
:100440007B681A61BB690133BB61BB69072BC1D9EA
:100450007B687A695A6000BF2437BD4680BC70470C
:1004600080B483B000AF78607B684FF6FF721A806B
:100470007B6802229A707B680422DA7000BF0C3716
:10048000BD4680BC704700BF80B485B000AF7860C7
:100490000B467B800023FB737B689A687B88134044
:1004A000002B02D00123FB7301E00023FB73FB7BD5
:1004B00018461437BD4680BC704700BF80B483B077
:1004C00000AF78600B467B807A887B681A6100BF3A
:1004D0000C37BD4680BC704780B483B000AF7860F5
:1004E0000B467B807A887B685A6100BF0C37BD461B
:1004F00080BC704780B483B000AF0346FB710849ED
:1005000097F907305B09FA7902F01F02012000FA1F
:1005100002F241F8232000BF0C37BD4680BC704773
:1005200000E100E080B483B000AF786002E07B6857
:10053000013B7B607B68002BF9D100BF0C37BD46C7
:1005400080BC704780B584B000AF7860786800F0F8
:1005500073FE0346013BFB6007E0FB687A681344C7
:1005600000221A70FB68013BFB60FB68002BF4DA89
:1005700000BF1037BD4680BD80B500AF01211C20F3
:1005800000F07CFC01214FF4804000F095FC3048E5
:1005900000F0F4FC2E4B00221A802D4B00225A80D2
:1005A0002B4B00229A802A4B0022DA80284B012212
:1005B0001A81274B4FF400725A81254B08229A81E9
:1005C000234B0022DA81224B07221A82204921483C
:1005D00000F090FC2048FFF743FF1F4B1822DA7011
:1005E0001D4B4FF460421A801B4B03229A701A492C
:1005F0001A48FFF779FE184B40F6FB721A80164B2B
:100600004822DA70144B02229A7013491348FFF7FC
:100610006BFE114B4FF440421A800F4B4822DA70A8
:100620000D4B02229A700C490D48FFF75DFE0A4BF4
:100630001022DA70084B40F20F321A80064B032268
:100640009A7005490748FFF74FFE00BF80BD00BF05
:10065000400000200038004054000020000C014001
:10066000001001400008014080B400AF154A154B4E
:10067000DB6883F00203D360134B00221A6004E0AE
:10068000114B1B680133104A13600F4B1B68B3F505
:10069000801FF5DB0B4A0B4BDB6883F00203D36052
:1006A000094B00221A6004E0074B1B680133064A1D
:1006B0001360054B1B68B3F5801FF5DB00BFBD461B
:1006C00080BC7047000801403800002080B582B02F
:1006D00000AF7860A54B00221A604FF40061A44877
:1006E000FFF7D2FE0346002B14D1FFF7BDFF9F4B4F
:1006F0001B68002B0ED1786800F09EFD03461A4659
:100700007B6813449B491A460B461B881380974B02
:1007100001221A60984B00221A604FF480619448BD
:10072000FFF7B2FE0346002B14D1FFF79DFF924B5B
:100730001B68002B0ED1786800F07EFD03461A4638
:100740007B6813448D491A460B461B8813808A4BDD
:1007500001221A608A4B00221A6002218448FFF7A6
:1007600093FE0346002B14D1FFF77EFF844B1B68DA
:10077000002B0ED1786800F05FFD03461A467B68B7
:10078000134480491A460B461B8813807C4B012278
:100790001A607D4B00221A604FF480417B48FFF7BE
:1007A00073FE0346002B14D1FFF75EFF764B1B68E8
:1007B000002B0ED1786800F03FFD03461A467B6897
:1007C000134473491A460B461B8813806E4B012253
:1007D0001A60704B00221A6020216548FFF754FE12
:1007E0000346002B14D1FFF73FFF6A4B1B68002B19
:1007F0000ED1786800F020FD03461A467B6813444A
:1008000065491A460B461B881380624B01221A6009
:10081000624B00221A6040215548FFF735FE03461F
:10082000002B14D1FFF720FF5C4B1B68002B0ED16F
:10083000786800F001FD03461A467B681344584966
:100840001A460B461B881380544B01221A60554BE5
:1008500000221A604FF480714548FFF715FE0346E9
:10086000002B14D1FFF700FF4E4B1B68002B0ED15D
:10087000786800F0E1FC03461A467B6813444A4955
:100880001A460B461B881380464B01221A60474BC1
:1008900000221A6001213648FFF7F6FD0346002BBF
:1008A00022D1FFF7E1FE424B00221A6004E0404BE8
:1008B0001B6801333E4A13603D4B1B68B3F5801F34
:1008C000F5DB3A4B1B68002B0ED1786800F0B4FCC6
:1008D00003461A467B68134436491A460B461B8862
:1008E0001380324B01221A60334B00221A60102110
:1008F0001F48FFF7C9FD0346002B14D1FFF7B4FED4
:100900002D4B1B68002B0ED1786800F095FC034638
:100910001A467B68134429491A460B461B881380E4
:10092000254B01221A60264B00221A6080211048B4
:10093000FFF7AAFD0346002B14D1FFF795FE204BCD
:100940001B68002B0ED1786800F076FC03461A462F
:100950007B6813441B491A460B461B881380184BAF
:1009600001221A6000BF0837BD4680BD100000207C
:10097000000C014094120008140000209812000896
:10098000180000209C1200081C00002000100140EC
:10099000A012000820000020A4120008240000205B
:1009A000A812000828000020AC1200082C0000202B
:1009B00038000020B012000830000020B4120008F7
:1009C00034000020B812000880B500AF744B1B68DB
:1009D000032B00F2E28001A252F823F0ED09000897
:1009E000650A0008530B00085F0B00084FF4007104
:1009F0006C48FFF749FD0346002B14D16A4B0022D7
:100A00001A6004E0684B1B680133674A1360664B49
:100A10001B68B3F5801FF5DB01216448FFF74EFD2D
:100A20005F4B01221A604FF400416148FFF72CFD33
:100A30000346002B40F0AE805B4B00221A6004E0BE
:100A4000594B1B680133584A1360574B1B68B3F569
:100A5000801FF5DB04215548FFF730FD504B032282
:100A60001A6097E05348FFF731FE534B1B68022B87
:100A700061DC504800F0E0FB0346042B40F08C8022
:100A80004E494C4800F0FAFA0346002B22D10121CE
:100A90004648FFF721FD04214448FFF70FFD454874
:100AA000FFF750FD444B00221A604FF480713F481D
:100AB000FFF704FD4248FFF735FD04213B48FFF7EF
:100AC0000BFD4FF480713948FFF706FD344B0022CF
:100AD0001A6061E0354A354BDB6883F00803D36068
:100AE000314B00221A6004E02F4B1B6801332E4A61
:100AF00013602D4B1B68B3F5801FF5DB2B4A2B4B86
:100B0000DB6883F00803D360274B00221A6004E0FF
:100B1000254B1B680133244A1360234B1B68B3F534
:100B2000801FF5DB244B1B680133234A13602148E7
:100B3000FFF708FD30E001211C48FFF7CDFC184B02
:100B400002221A601B48FFF7FDFC1B4B00221A60B3
:100B500022E04FF400711548FFF7B0FC1DE0154886
:100B6000FFF7F0FC144B00221A604FF480710F481D
:100B7000FFF7A4FC1248FFF7D5FC04210B48FFF750
:100B8000ABFC4FF480710948FFF7A6FC044B002230
:100B90001A6002E000BF00E000BF00BF80BD00BFE0
:100BA00008000020000C014038000020000801402F
:100BB00000100140580000200C0000200000002020
:100BC00080F0FA0280B582B000AF7860614B1B788C
:100BD000013B0F2B00F2BA8001A252F823F000BFB4
:100BE000210C00083F0C00085D0C00087B0C00087D
:100BF000990C0008B70C0008D50C0008F30C00088D
:100C0000110D00084D0D00084D0D00084D0D000898
:100C10004D0D00084D0D00084D0D00082F0D00086A
:100C2000786800F009FB03461A467B6813444A497A
:100C30001A460B461B881380FFF716FD86E078687E
:100C400000F0FAFA03461A467B68134443491A46F1
:100C50000B461B881380FFF707FD77E0786800F0EC
:100C6000EBFA03461A467B6813443D491A460B4685
:100C70001B881380FFF7F8FC68E0786800F0DCFA66
:100C800003461A467B68134436491A460B461B88AE
:100C90001380FFF7E9FC59E0786800F0CDFA0346CD
:100CA0001A467B68134430491A460B461B8813804A
:100CB000FFF7DAFC4AE0786800F0BEFA03461A460D
:100CC0007B68134429491A460B461B881380FFF79B
:100CD000CBFC3BE0786800F0AFFA03461A467B682D
:100CE000134423491A460B461B881380FFF7BCFCAC
:100CF0002CE0786800F0A0FA03461A467B6813449B
:100D00001C491A460B461B881380FFF7ADFC1DE0FB
:100D1000786800F091FA03461A467B681344164936
:100D20001A460B461B881380FFF79EFC0EE078687E
:100D300000F082FA03461A467B6813440F491A46AC
:100D40000B461B881380FFF78FFC00BF00BF0837DE
:100D5000BD4680BD3C000020941200089812000897
:100D60009C120008A0120008A4120008A812000893
:100D7000AC120008B0120008B4120008B812000843
:100D800080B582B000AF62B6FFF7F6FB01212B48B9
:100D900000F018F92420FFF7ADFB0122602127485D
:100DA00000F030F9264B1B78012BFBD1254B1B782B
:100DB000112B06D0122B10D0002B3AD1FFF704FED6
:100DC00037E04FF400712048FFF786FB1F4B0022ED
:100DD0001A601C4B00221A702BE001211A48FFF701
:100DE0006DFB1B48FFF7AEFB00237B600AE0184851
:100DF00000F022FA03467B601548FFF7E3FE114B33
:100E000012221A707B68042BF1D1FFF72DFCFFF73B
:100E10002BFCFFF729FCFFF727FCFFF725FC094B0C
:100E200000221A7000237B6001210748FFF754FB62
:100E300000BF034B00221A70B4E700BF0038004027
:100E40003D0000203C000020000801400800002078
:100E50000000002080B500AF054800F003F903460C
:100E6000DAB2044B1A70044B01221A7000BF80BD25
:100E7000003800403C0000203D00002080B483B0DA
:100E800000AF78600B46FB70FB78002B06D0094959
:100E9000084B9A697B6813438B6106E00549054B53
:100EA0009A697B68DB4313408B6100BF0C37BD46FA
:100EB00080BC70470010024080B483B000AF7860FF
:100EC0000B46FB70FB78002B06D00949084BDA690A
:100ED0007B681343CB6106E00549054BDA697B6803
:100EE000DB431340CB6100BF0C37BD4680BC70476D
:100EF0000010024080B485B000AF786039600023F4
:100F0000FB817B681B88FB81FB8903F44153FB81D8
:100F10003B681A883B685B8813439AB23B689B889E
:100F200013439AB23B68DB8813439AB23B681B8930
:100F300013439AB23B685B8913439AB23B689B891F
:100F400013439AB23B68DB8913439AB2FB8913437C
:100F5000FB817B68FA891A807B689B8B9BB223F4A8
:100F600000639AB27B689A833B681A8A7B681A820C
:100F700000BF1437BD4680BC704700BF80B483B04B
:100F800000AF78607B6800221A807B6800225A805C
:100F90007B6800229A807B680022DA807B680022CE
:100FA0001A817B6800225A817B6800229A817B68C3
:100FB0000022DA817B6807221A8200BF0C37BD4607
:100FC00080BC704780B483B000AF78600B46FB7084
:100FD000FB78002B08D07B681B889BB243F0400352
:100FE0009AB27B681A8007E07B681B889BB223F06B
:100FF00040039AB27B681A8000BF0C37BD4680BCA4
:10100000704700BF80B485B000AF78600B46FB70BE
:101010001346BB700023FB810023BB81FB781B09B7
:10102000DBB2FB81FB89012202FA03F3BB81BB78AF
:10103000002B08D07B689B889AB2BB8913439AB275
:101040007B689A8009E07B689B889AB2BB89DB4306
:101050009BB213409AB27B689A8000BF1437BD469A
:1010600080BC704780B483B000AF78607B689B8998
:101070009BB218460C37BD4680BC704780EA010C15
:101080001CF0030F37D110F0030C20F0030021F007
:10109000030150F8042B08BF51F8043B0ED08CF02C
:1010A000030C6FF07F434FEACC0C23FA0CFC51F891
:1010B000043B42EA0C0243EA0C0300BFA2F1013CEC
:1010C0009A4201BF2CEA020C1CF0803F50F8042B1E
:1010D00051F8043BF2D04FEA02604FEA1222012895
:1010E00028BFB0EB036F08BF1B0AF4D003F0FF0367
:1010F000000EC01A704710F0030F0AD010F8012B31
:1011000011F8013B012A28BF9A42F4D0A2EB030058
:1011100070474DF8045D50F8042B01F0030521F0F1
:10112000030151F8043B022D26D04DD822F07F4513
:10113000B5EB132FA2F1013C2CEA020C0DD11CF0EF
:10114000803C08BF51F8043B0AD185EA0205B5EBA3
:10115000036F0CD150F8042BE8E74FEA13235BE050
:101160003CF07F4C54D10B784FEA126554E04FEAC3
:10117000126503F0FF034FE04FEA0245A2F1013C84
:101180004FEA15452CEA020CB5EB134F18D11CF0B1
:10119000803C08BF51F8043B07D185EA0205B5EB56
:1011A000034F09D150F8042BE6E75FEA0C4C2FD12E
:1011B0000B884FEA12452FE04FEA03434FEA1245EE
:1011C0004FEA134328E000BF02F0FF05B5EB136FB1
:1011D000A2F1013C2CEA020C0DD11CF0803C08BFAE
:1011E00051F8043B0AD185EA0205B5EB032F0AD179
:1011F00050F8042BE8E74FEA13630DE012F0FF0FFD
:1012000006D051F8043B4FEA122523F07F4303E058
:101210004FF0000020BC704705F0FF0203F0FF0014
:10122000012828BF904204BF2D0A1B0AF4D0A2EB6C
:10123000000020BC704700BF20F0030110F0030045
:10124000C0F1000051F8043B00F1040C4FEACC0C53
:101250006FF000021CBF22FA0CF213434FF0010C96
:101260004CEA0C2C4CEA0C4CA3EB0C0222EA0302D5
:1012700012EACC1204BF51F8043B0430F4D0C2F19E
:10128000000102EA0102B2FA82F2C2F11F0200EB8F
:10129000D20070473100000032000000330000002F
:1012A0003400000035000000360000003700000068
:0A12B0003800000039000000300093
:0812BA00313131310000000068
:0400000508000000EF
:00000001FF
